{
  "contractName": "SentinelUser",
  "abi": [
    {
      "anonymous": false,
      "inputs": [
        {
          "indexed": true,
          "internalType": "address",
          "name": "wallet",
          "type": "address"
        },
        {
          "indexed": false,
          "internalType": "string",
          "name": "role",
          "type": "string"
        }
      ],
      "name": "UserRegistered",
      "type": "event"
    },
    {
      "inputs": [
        {
          "internalType": "address",
          "name": "",
          "type": "address"
        }
      ],
      "name": "users",
      "outputs": [
        {
          "internalType": "address",
          "name": "walletAddress",
          "type": "address"
        },
        {
          "internalType": "string",
          "name": "role",
          "type": "string"
        },
        {
          "internalType": "bool",
          "name": "isRegistered",
          "type": "bool"
        }
      ],
      "stateMutability": "view",
      "type": "function",
      "constant": true
    },
    {
      "inputs": [
        {
          "internalType": "string",
          "name": "_role",
          "type": "string"
        }
      ],
      "name": "registerUser",
      "outputs": [],
      "stateMutability": "nonpayable",
      "type": "function"
    },
    {
      "inputs": [
        {
          "internalType": "address",
          "name": "_wallet",
          "type": "address"
        }
      ],
      "name": "isUserRegistered",
      "outputs": [
        {
          "internalType": "bool",
          "name": "",
          "type": "bool"
        }
      ],
      "stateMutability": "view",
      "type": "function",
      "constant": true
    }
  ],
  "bytecode": "0x608060405234801561001057600080fd5b50610aa9806100206000396000f3fe608060405234801561001057600080fd5b50600436106100415760003560e01c8063163f752214610046578063704f1b9414610076578063a87430ba14610092575b600080fd5b610060600480360381019061005b919061043f565b6100c4565b60405161006d9190610487565b60405180910390f35b610090600480360381019061008b91906105e8565b61011c565b005b6100ac60048036038101906100a7919061043f565b6102ee565b6040516100bb939291906106bf565b60405180910390f35b60008060008373ffffffffffffffffffffffffffffffffffffffff1673ffffffffffffffffffffffffffffffffffffffff16815260200190815260200160002060020160009054906101000a900460ff169050919050565b6000803373ffffffffffffffffffffffffffffffffffffffff1673ffffffffffffffffffffffffffffffffffffffff16815260200190815260200160002060020160009054906101000a900460ff16156101ab576040517f08c379a00000000000000000000000000000000000000000000000000000000081526004016101a290610749565b60405180910390fd5b60405180606001604052803373ffffffffffffffffffffffffffffffffffffffff168152602001828152602001600115158152506000803373ffffffffffffffffffffffffffffffffffffffff1673ffffffffffffffffffffffffffffffffffffffff16815260200190815260200160002060008201518160000160006101000a81548173ffffffffffffffffffffffffffffffffffffffff021916908373ffffffffffffffffffffffffffffffffffffffff1602179055506020820151816001019081610279919061097f565b5060408201518160020160006101000a81548160ff0219169083151502179055509050503373ffffffffffffffffffffffffffffffffffffffff167f48cac28ad4dc618e15f4c2dd5e97751182f166de97b25618318b2112aa951a2f826040516102e39190610a51565b60405180910390a250565b60006020528060005260406000206000915090508060000160009054906101000a900473ffffffffffffffffffffffffffffffffffffffff169080600101805461033790610798565b80601f016020809104026020016040519081016040528092919081815260200182805461036390610798565b80156103b05780601f10610385576101008083540402835291602001916103b0565b820191906000526020600020905b81548152906001019060200180831161039357829003601f168201915b5050505050908060020160009054906101000a900460ff16905083565b6000604051905090565b600080fd5b600080fd5b600073ffffffffffffffffffffffffffffffffffffffff82169050919050565b600061040c826103e1565b9050919050565b61041c81610401565b811461042757600080fd5b50565b60008135905061043981610413565b92915050565b600060208284031215610455576104546103d7565b5b60006104638482850161042a565b91505092915050565b60008115159050919050565b6104818161046c565b82525050565b600060208201905061049c6000830184610478565b92915050565b600080fd5b600080fd5b6000601f19601f8301169050919050565b7f4e487b7100000000000000000000000000000000000000000000000000000000600052604160045260246000fd5b6104f5826104ac565b810181811067ffffffffffffffff82111715610514576105136104bd565b5b80604052505050565b60006105276103cd565b905061053382826104ec565b919050565b600067ffffffffffffffff821115610553576105526104bd565b5b61055c826104ac565b9050602081019050919050565b82818337600083830152505050565b600061058b61058684610538565b61051d565b9050828152602081018484840111156105a7576105a66104a7565b5b6105b2848285610569565b509392505050565b600082601f8301126105cf576105ce6104a2565b5b81356105df848260208601610578565b91505092915050565b6000602082840312156105fe576105fd6103d7565b5b600082013567ffffffffffffffff81111561061c5761061b6103dc565b5b610628848285016105ba565b91505092915050565b61063a81610401565b82525050565b600081519050919050565b600082825260208201905092915050565b60005b8381101561067a57808201518184015260208101905061065f565b60008484015250505050565b600061069182610640565b61069b818561064b565b93506106ab81856020860161065c565b6106b4816104ac565b840191505092915050565b60006060820190506106d46000830186610631565b81810360208301526106e68185610686565b90506106f56040830184610478565b949350505050565b7f5573657220616c72656164792072656769737465726564000000000000000000600082015250565b600061073360178361064b565b915061073e826106fd565b602082019050919050565b6000602082019050818103600083015261076281610726565b9050919050565b7f4e487b7100000000000000000000000000000000000000000000000000000000600052602260045260246000fd5b600060028204905060018216806107b057607f821691505b6020821081036107c3576107c2610769565b5b50919050565b60008190508160005260206000209050919050565b60006020601f8301049050919050565b600082821b905092915050565b60006008830261082b7fffffffffffffffffffffffffffffffffffffffffffffffffffffffffffffffff826107ee565b61083586836107ee565b95508019841693508086168417925050509392505050565b6000819050919050565b6000819050919050565b600061087c6108776108728461084d565b610857565b61084d565b9050919050565b6000819050919050565b61089683610861565b6108aa6108a282610883565b8484546107fb565b825550505050565b600090565b6108bf6108b2565b6108ca81848461088d565b505050565b5b818110156108ee576108e36000826108b7565b6001810190506108d0565b5050565b601f82111561093357610904816107c9565b61090d846107de565b8101602085101561091c578190505b610930610928856107de565b8301826108cf565b50505b505050565b600082821c905092915050565b600061095660001984600802610938565b1980831691505092915050565b600061096f8383610945565b9150826002028217905092915050565b61098882610640565b67ffffffffffffffff8111156109a1576109a06104bd565b5b6109ab8254610798565b6109b68282856108f2565b600060209050601f8311600181146109e957600084156109d7578287015190505b6109e18582610963565b865550610a49565b601f1984166109f7866107c9565b60005b82811015610a1f578489015182556001820191506020850194506020810190506109fa565b86831015610a3c5784890151610a38601f891682610945565b8355505b6001600288020188555050505b505050505050565b60006020820190508181036000830152610a6b8184610686565b90509291505056fea2646970667358221220b101b204ad605e3a7a03a5817ac30fc0455ad39f53ef0481cb62c0c3aa2be77464736f6c63430008150033",
  "immutableReferences": {},
  "source": "// SPDX-License-Identifier: MIT\r\npragma solidity ^0.8.0;\r\n\r\ncontract SentinelUser {\r\n    // A simple structure to hold user info on blockchain\r\n    struct User {\r\n        address walletAddress;\r\n        string role;\r\n        bool isRegistered;\r\n    }\r\n\r\n    // Mapping to store users by their wallet address\r\n    mapping(address => User) public users;\r\n\r\n    // Event to notify when a user is added\r\n    event UserRegistered(address indexed wallet, string role);\r\n\r\n    // Function to register a user\r\n    function registerUser(string memory _role) public {\r\n        require(!users[msg.sender].isRegistered, \"User already registered\");\r\n        \r\n        users[msg.sender] = User(msg.sender, _role, true);\r\n        \r\n        emit UserRegistered(msg.sender, _role);\r\n    }\r\n\r\n    // Function to check if a user exists\r\n    function isUserRegistered(address _wallet) public view returns (bool) {\r\n        return users[_wallet].isRegistered;\r\n    }\r\n}",
  "sourcePath": "D:\\8th semester\\Main Project\\GITHUB\\Sentinel\\blockchain\\contracts\\SentinelUser.sol",
  "compiler": {
    "name": "solc",
    "version": "0.8.21+commit.d9974bed.Emscripten.clang"
  },
  "schemaVersion": "3.4.16",
  "updatedAt": "2026-01-10T20:25:32.235Z",
  "networkType": "ethereum",
  "devdoc": {
    "kind": "dev",
    "methods": {},
    "version": 1
  },
  "userdoc": {
    "kind": "user",
    "methods": {},
    "version": 1
  }
}